{
  "contractName": "Loan",
  "abi": [
    {
      "inputs": [],
      "payable": false,
      "stateMutability": "nonpayable",
      "type": "constructor"
    },
    {
      "anonymous": false,
      "inputs": [
        {
          "indexed": true,
          "internalType": "address",
          "name": "_borrower",
          "type": "address"
        },
        {
          "indexed": true,
          "internalType": "uint256",
          "name": "_depositAmount",
          "type": "uint256"
        }
      ],
      "name": "LogDeposit",
      "type": "event"
    },
    {
      "anonymous": false,
      "inputs": [
        {
          "indexed": false,
          "internalType": "address",
          "name": "_killer",
          "type": "address"
        }
      ],
      "name": "LogKilled",
      "type": "event"
    },
    {
      "anonymous": false,
      "inputs": [
        {
          "indexed": true,
          "internalType": "address",
          "name": "_lender",
          "type": "address"
        },
        {
          "indexed": true,
          "internalType": "uint256",
          "name": "_loanId",
          "type": "uint256"
        }
      ],
      "name": "LogLoanCreation",
      "type": "event"
    },
    {
      "anonymous": false,
      "inputs": [
        {
          "indexed": true,
          "internalType": "address",
          "name": "_borrower",
          "type": "address"
        },
        {
          "indexed": true,
          "internalType": "uint256",
          "name": "_loanID",
          "type": "uint256"
        },
        {
          "indexed": true,
          "internalType": "uint256",
          "name": "_paidBack",
          "type": "uint256"
        }
      ],
      "name": "LogPaid",
      "type": "event"
    },
    {
      "anonymous": false,
      "inputs": [
        {
          "indexed": false,
          "internalType": "address",
          "name": "_owner",
          "type": "address"
        }
      ],
      "name": "LogResumed",
      "type": "event"
    },
    {
      "anonymous": false,
      "inputs": [
        {
          "indexed": true,
          "internalType": "uint256",
          "name": "_loanID",
          "type": "uint256"
        },
        {
          "indexed": true,
          "internalType": "address",
          "name": "_borrower",
          "type": "address"
        },
        {
          "indexed": true,
          "internalType": "uint256",
          "name": "_amountRetrieved",
          "type": "uint256"
        }
      ],
      "name": "LogRetrieved",
      "type": "event"
    },
    {
      "anonymous": false,
      "inputs": [
        {
          "indexed": false,
          "internalType": "address",
          "name": "_owner",
          "type": "address"
        }
      ],
      "name": "LogStopped",
      "type": "event"
    },
    {
      "anonymous": false,
      "inputs": [
        {
          "indexed": false,
          "internalType": "address",
          "name": "newOwner",
          "type": "address"
        }
      ],
      "name": "OwnershipTransferred",
      "type": "event"
    },
    {
      "constant": true,
      "inputs": [],
      "name": "getOwner",
      "outputs": [
        {
          "internalType": "address",
          "name": "_owner",
          "type": "address"
        }
      ],
      "payable": false,
      "stateMutability": "view",
      "type": "function"
    },
    {
      "constant": false,
      "inputs": [],
      "name": "kill",
      "outputs": [],
      "payable": false,
      "stateMutability": "nonpayable",
      "type": "function"
    },
    {
      "constant": true,
      "inputs": [],
      "name": "loanCounter",
      "outputs": [
        {
          "internalType": "uint256",
          "name": "",
          "type": "uint256"
        }
      ],
      "payable": false,
      "stateMutability": "view",
      "type": "function"
    },
    {
      "constant": true,
      "inputs": [],
      "name": "loanId",
      "outputs": [
        {
          "internalType": "uint256",
          "name": "",
          "type": "uint256"
        }
      ],
      "payable": false,
      "stateMutability": "view",
      "type": "function"
    },
    {
      "constant": true,
      "inputs": [
        {
          "internalType": "uint256",
          "name": "",
          "type": "uint256"
        }
      ],
      "name": "loans",
      "outputs": [
        {
          "internalType": "uint256",
          "name": "fullAmount",
          "type": "uint256"
        },
        {
          "internalType": "uint256",
          "name": "amount",
          "type": "uint256"
        },
        {
          "internalType": "uint256",
          "name": "interest",
          "type": "uint256"
        },
        {
          "internalType": "uint256",
          "name": "ID",
          "type": "uint256"
        },
        {
          "internalType": "uint256",
          "name": "end",
          "type": "uint256"
        },
        {
          "internalType": "address",
          "name": "lender",
          "type": "address"
        },
        {
          "internalType": "address",
          "name": "borrower",
          "type": "address"
        },
        {
          "internalType": "enum Loan.Status",
          "name": "status",
          "type": "uint8"
        },
        {
          "internalType": "uint256",
          "name": "requiredDeposit",
          "type": "uint256"
        }
      ],
      "payable": false,
      "stateMutability": "view",
      "type": "function"
    },
    {
      "constant": false,
      "inputs": [],
      "name": "resume",
      "outputs": [],
      "payable": false,
      "stateMutability": "nonpayable",
      "type": "function"
    },
    {
      "constant": false,
      "inputs": [
        {
          "internalType": "address",
          "name": "newOwner",
          "type": "address"
        }
      ],
      "name": "setOwner",
      "outputs": [
        {
          "internalType": "bool",
          "name": "success",
          "type": "bool"
        }
      ],
      "payable": false,
      "stateMutability": "nonpayable",
      "type": "function"
    },
    {
      "constant": false,
      "inputs": [],
      "name": "stop",
      "outputs": [],
      "payable": false,
      "stateMutability": "nonpayable",
      "type": "function"
    },
    {
      "constant": false,
      "inputs": [
        {
          "internalType": "uint256",
          "name": "_interest",
          "type": "uint256"
        },
        {
          "internalType": "uint256",
          "name": "_loanPeriod",
          "type": "uint256"
        },
        {
          "internalType": "address",
          "name": "_borrower",
          "type": "address"
        },
        {
          "internalType": "uint256",
          "name": "_depositPercentage",
          "type": "uint256"
        }
      ],
      "name": "createLoan",
      "outputs": [
        {
          "internalType": "bool",
          "name": "",
          "type": "bool"
        }
      ],
      "payable": true,
      "stateMutability": "payable",
      "type": "function"
    },
    {
      "constant": false,
      "inputs": [
        {
          "internalType": "uint256",
          "name": "_loanId",
          "type": "uint256"
        }
      ],
      "name": "payLoanDeposit",
      "outputs": [],
      "payable": true,
      "stateMutability": "payable",
      "type": "function"
    },
    {
      "constant": false,
      "inputs": [
        {
          "internalType": "uint256",
          "name": "_loanId",
          "type": "uint256"
        }
      ],
      "name": "payBackLoan",
      "outputs": [],
      "payable": true,
      "stateMutability": "payable",
      "type": "function"
    },
    {
      "constant": false,
      "inputs": [
        {
          "internalType": "uint256",
          "name": "_loanId",
          "type": "uint256"
        }
      ],
      "name": "retrieveLoanFunds",
      "outputs": [],
      "payable": true,
      "stateMutability": "payable",
      "type": "function"
    },
    {
      "constant": true,
      "inputs": [
        {
          "internalType": "uint256",
          "name": "_loanId",
          "type": "uint256"
        }
      ],
      "name": "retrieveLoans",
      "outputs": [
        {
          "internalType": "uint256",
          "name": "fullAmount",
          "type": "uint256"
        },
        {
          "internalType": "uint256",
          "name": "amount",
          "type": "uint256"
        },
        {
          "internalType": "uint256",
          "name": "interest",
          "type": "uint256"
        },
        {
          "internalType": "uint256",
          "name": "loanPeriod",
          "type": "uint256"
        },
        {
          "internalType": "address",
          "name": "lender",
          "type": "address"
        },
        {
          "internalType": "address",
          "name": "borrower",
          "type": "address"
        },
        {
          "internalType": "uint256",
          "name": "status",
          "type": "uint256"
        },
        {
          "internalType": "uint256",
          "name": "requiredDeposit",
          "type": "uint256"
        }
      ],
      "payable": false,
      "stateMutability": "view",
      "type": "function"
    }
  ],
  "bytecode": "0x608060405234801561001057600080fd5b50336000806101000a81548173ffffffffffffffffffffffffffffffffffffffff021916908373ffffffffffffffffffffffffffffffffffffffff16021790555060008060146101000a81548160ff02191690831515021790555060008060156101000a81548160ff02191690831515021790555060016002819055506123a98061009c6000396000f3fe6080604052600436106100c25760003560e01c806344cce2761161007f578063893d20e811610059578063893d20e81461034e578063c21c29ed146103a5578063c95669a5146103d3578063e1ec3c68146103fe576100c2565b806344cce276146102785780634f1c762f146102a65780636faa8b3f14610320576100c2565b8063046f7da2146100c757806307da68f5146100de57806313af4035146100f557806334d9289e1461015e5780633a98b4881461018957806341c0e1b514610261575b600080fd5b3480156100d357600080fd5b506100dc6104eb565b005b3480156100ea57600080fd5b506100f3610731565b005b34801561010157600080fd5b506101446004803603602081101561011857600080fd5b81019080803573ffffffffffffffffffffffffffffffffffffffff169060200190929190505050610979565b604051808215151515815260200191505060405180910390f35b34801561016a57600080fd5b50610173610b8c565b6040518082815260200191505060405180910390f35b34801561019557600080fd5b506101c2600480360360208110156101ac57600080fd5b8101908080359060200190929190505050610b92565b604051808981526020018881526020018781526020018681526020018573ffffffffffffffffffffffffffffffffffffffff1673ffffffffffffffffffffffffffffffffffffffff1681526020018473ffffffffffffffffffffffffffffffffffffffff1673ffffffffffffffffffffffffffffffffffffffff1681526020018381526020018281526020019850505050505050505060405180910390f35b34801561026d57600080fd5b50610276610de7565b005b6102a46004803603602081101561028e57600080fd5b810190808035906020019092919050505061102e565b005b610306600480360360808110156102bc57600080fd5b810190808035906020019092919080359060200190929190803573ffffffffffffffffffffffffffffffffffffffff1690602001909291908035906020019092919050505061146e565b604051808215151515815260200191505060405180910390f35b61034c6004803603602081101561033657600080fd5b810190808035906020019092919050505061188a565b005b34801561035a57600080fd5b50610363611cd7565b604051808273ffffffffffffffffffffffffffffffffffffffff1673ffffffffffffffffffffffffffffffffffffffff16815260200191505060405180910390f35b6103d1600480360360208110156103bb57600080fd5b8101908080359060200190929190505050611d00565b005b3480156103df57600080fd5b506103e8612055565b6040518082815260200191505060405180910390f35b34801561040a57600080fd5b506104376004803603602081101561042157600080fd5b810190808035906020019092919050505061205b565b604051808a81526020018981526020018881526020018781526020018681526020018573ffffffffffffffffffffffffffffffffffffffff1673ffffffffffffffffffffffffffffffffffffffff1681526020018473ffffffffffffffffffffffffffffffffffffffff1673ffffffffffffffffffffffffffffffffffffffff1681526020018360028111156104c957fe5b60ff168152602001828152602001995050505050505050505060405180910390f35b6000809054906101000a900473ffffffffffffffffffffffffffffffffffffffff1673ffffffffffffffffffffffffffffffffffffffff163373ffffffffffffffffffffffffffffffffffffffff16146105ad576040517f08c379a000000000000000000000000000000000000000000000000000000000815260040180806020018281038252601f8152602001807f4572726f723a206d73672e73656e646572206d757374206265206f776e65720081525060200191505060405180910390fd5b600060159054906101000a900460ff1615610630576040517f08c379a00000000000000000000000000000000000000000000000000000000081526004018080602001828103825260108152602001807f436f6e747261637420697320646561640000000000000000000000000000000081525060200191505060405180910390fd5b600060149054906101000a900460ff166106b2576040517f08c379a00000000000000000000000000000000000000000000000000000000081526004018080602001828103825260138152602001807f436f6e74726163742069732072756e6e696e670000000000000000000000000081525060200191505060405180910390fd5b60008060146101000a81548160ff0219169083151502179055507f29560ba70e3537fccc61029db8de08e30408a3f131625765c51e3e972a7867ad33604051808273ffffffffffffffffffffffffffffffffffffffff1673ffffffffffffffffffffffffffffffffffffffff16815260200191505060405180910390a1565b6000809054906101000a900473ffffffffffffffffffffffffffffffffffffffff1673ffffffffffffffffffffffffffffffffffffffff163373ffffffffffffffffffffffffffffffffffffffff16146107f3576040517f08c379a000000000000000000000000000000000000000000000000000000000815260040180806020018281038252601f8152602001807f4572726f723a206d73672e73656e646572206d757374206265206f776e65720081525060200191505060405180910390fd5b600060159054906101000a900460ff1615610876576040517f08c379a00000000000000000000000000000000000000000000000000000000081526004018080602001828103825260108152602001807f436f6e747261637420697320646561640000000000000000000000000000000081525060200191505060405180910390fd5b600060149054906101000a900460ff16156108f9576040517f08c379a00000000000000000000000000000000000000000000000000000000081526004018080602001828103825260138152602001807f436f6e7472616374206973207061757365642e0000000000000000000000000081525060200191505060405180910390fd5b6001600060146101000a81548160ff0219169083151502179055507fae2ff8b88a09be6cc9de7aa5e8efc037af3dfdb611a1217f8c70fc50975b8a8033604051808273ffffffffffffffffffffffffffffffffffffffff1673ffffffffffffffffffffffffffffffffffffffff16815260200191505060405180910390a1565b60008060009054906101000a900473ffffffffffffffffffffffffffffffffffffffff1673ffffffffffffffffffffffffffffffffffffffff163373ffffffffffffffffffffffffffffffffffffffff1614610a3d576040517f08c379a000000000000000000000000000000000000000000000000000000000815260040180806020018281038252601f8152602001807f4572726f723a206d73672e73656e646572206d757374206265206f776e65720081525060200191505060405180910390fd5b600073ffffffffffffffffffffffffffffffffffffffff168273ffffffffffffffffffffffffffffffffffffffff161415610ae0576040517f08c379a000000000000000000000000000000000000000000000000000000000815260040180806020018281038252601a8152602001807f4572726f723a20416464726573732063616e6e6f74206265203000000000000081525060200191505060405180910390fd5b7f04dba622d284ed0014ee4b9a6a68386be1a4c08a4913ae272de89199cc68616382604051808273ffffffffffffffffffffffffffffffffffffffff1673ffffffffffffffffffffffffffffffffffffffff16815260200191505060405180910390a1816000806101000a81548173ffffffffffffffffffffffffffffffffffffffff021916908373ffffffffffffffffffffffffffffffffffffffff16021790555060019050919050565b60015481565b600080600080600080600080600060149054906101000a900460ff1615610c21576040517f08c379a00000000000000000000000000000000000000000000000000000000081526004018080602001828103825260138152602001807f436f6e7472616374206973207061757365642e0000000000000000000000000081525060200191505060405180910390fd5b600060159054906101000a900460ff1615610ca4576040517f08c379a00000000000000000000000000000000000000000000000000000000081526004018080602001828103825260108152602001807f436f6e747261637420697320646561640000000000000000000000000000000081525060200191505060405180910390fd5b600360008a8152602001908152602001600020600001549750600360008a8152602001908152602001600020600101549650600360008a8152602001908152602001600020600201549550600360008a8152602001908152602001600020600401549450600360008a815260200190815260200160002060050160009054906101000a900473ffffffffffffffffffffffffffffffffffffffff169350600360008a815260200190815260200160002060060160009054906101000a900473ffffffffffffffffffffffffffffffffffffffff169250600360008a815260200190815260200160002060060160149054906101000a900460ff166002811115610da957fe5b9150600360008a8152602001908152602001600020600701549050878787878787878797509750975097509750975097509750919395975091939597565b6000809054906101000a900473ffffffffffffffffffffffffffffffffffffffff1673ffffffffffffffffffffffffffffffffffffffff163373ffffffffffffffffffffffffffffffffffffffff1614610ea9576040517f08c379a000000000000000000000000000000000000000000000000000000000815260040180806020018281038252601f8152602001807f4572726f723a206d73672e73656e646572206d757374206265206f776e65720081525060200191505060405180910390fd5b600060159054906101000a900460ff1615610f2c576040517f08c379a00000000000000000000000000000000000000000000000000000000081526004018080602001828103825260108152602001807f436f6e747261637420697320646561640000000000000000000000000000000081525060200191505060405180910390fd5b600060149054906101000a900460ff16610fae576040517f08c379a00000000000000000000000000000000000000000000000000000000081526004018080602001828103825260138152602001807f436f6e74726163742069732072756e6e696e670000000000000000000000000081525060200191505060405180910390fd5b6001600060156101000a81548160ff0219169083151502179055507fdd1d1672156846fdc9d6e65d5701535f177a41834051f5f7328be7f4252bcb3133604051808273ffffffffffffffffffffffffffffffffffffffff1673ffffffffffffffffffffffffffffffffffffffff16815260200191505060405180910390a1565b600060149054906101000a900460ff16156110b1576040517f08c379a00000000000000000000000000000000000000000000000000000000081526004018080602001828103825260138152602001807f436f6e7472616374206973207061757365642e0000000000000000000000000081525060200191505060405180910390fd5b600060159054906101000a900460ff1615611134576040517f08c379a00000000000000000000000000000000000000000000000000000000081526004018080602001828103825260108152602001807f436f6e747261637420697320646561640000000000000000000000000000000081525060200191505060405180910390fd5b6000600281111561114157fe5b6003600083815260200190815260200160002060060160149054906101000a900460ff16600281111561117057fe5b1461117a57600080fd5b600360008281526020019081526020016000206007015434146111e8576040517f08c379a00000000000000000000000000000000000000000000000000000000081526004018080602001828103825260218152602001806122d06021913960400191505060405180910390fd5b6003600082815260200190815260200160002060060160009054906101000a900473ffffffffffffffffffffffffffffffffffffffff1673ffffffffffffffffffffffffffffffffffffffff163373ffffffffffffffffffffffffffffffffffffffff16146112a2576040517f08c379a000000000000000000000000000000000000000000000000000000000815260040180806020018281038252602f815260200180612313602f913960400191505060405180910390fd5b60016003600083815260200190815260200160002060060160146101000a81548160ff021916908360028111156112d557fe5b02179055506003600082815260200190815260200160002060070154600360008381526020019081526020016000206000016000828254039250508190555060006003600083815260200190815260200160002060050160009054906101000a900473ffffffffffffffffffffffffffffffffffffffff1673ffffffffffffffffffffffffffffffffffffffff163460405180600001905060006040518083038185875af1925050503d80600081146113aa576040519150601f19603f3d011682016040523d82523d6000602084013e6113af565b606091505b5050905080611426576040517f08c379a00000000000000000000000000000000000000000000000000000000081526004018080602001828103825260178152602001807f4572726f723a205472616e73666572206661696c65642e00000000000000000081525060200191505060405180910390fd5b343373ffffffffffffffffffffffffffffffffffffffff167f1b851e1031ef35a238e6c67d0c7991162390df915f70eaf9098dbf0b175a619860405160405180910390a35050565b60008060149054906101000a900460ff16156114f2576040517f08c379a00000000000000000000000000000000000000000000000000000000081526004018080602001828103825260138152602001807f436f6e7472616374206973207061757365642e0000000000000000000000000081525060200191505060405180910390fd5b600060159054906101000a900460ff1615611575576040517f08c379a00000000000000000000000000000000000000000000000000000000081526004018080602001828103825260108152602001807f436f6e747261637420697320646561640000000000000000000000000000000081525060200191505060405180910390fd5b600073ffffffffffffffffffffffffffffffffffffffff168373ffffffffffffffffffffffffffffffffffffffff161415611618576040517f08c379a000000000000000000000000000000000000000000000000000000000815260040180806020018281038252601e8152602001807f426f72726f776572277320616464726573732063616e6e6f742062652030000081525060200191505060405180910390fd5b60003411611671576040517f08c379a000000000000000000000000000000000000000000000000000000000815260040180806020018281038252602281526020018061228d6022913960400191505060405180910390fd5b6002543373ffffffffffffffffffffffffffffffffffffffff167fe9f8c22c262ea6d87192756704ee1e94485d1875fda64d70aa43f13021c281ad60405160405180910390a360006116df60646116d185346120f690919063ffffffff16565b61217c90919063ffffffff16565b905060008634019050604051806101200160405280828152602001348152602001888152602001600254815260200187420181526020013373ffffffffffffffffffffffffffffffffffffffff1681526020018673ffffffffffffffffffffffffffffffffffffffff1681526020016000600281111561175b57fe5b815260200183815250600360006002548152602001908152602001600020600082015181600001556020820151816001015560408201518160020155606082015181600301556080820151816004015560a08201518160050160006101000a81548173ffffffffffffffffffffffffffffffffffffffff021916908373ffffffffffffffffffffffffffffffffffffffff16021790555060c08201518160060160006101000a81548173ffffffffffffffffffffffffffffffffffffffff021916908373ffffffffffffffffffffffffffffffffffffffff16021790555060e08201518160060160146101000a81548160ff0219169083600281111561185d57fe5b02179055506101008201518160070155905050600160025401600281905550600192505050949350505050565b600060149054906101000a900460ff161561190d576040517f08c379a00000000000000000000000000000000000000000000000000000000081526004018080602001828103825260138152602001807f436f6e7472616374206973207061757365642e0000000000000000000000000081525060200191505060405180910390fd5b600060159054906101000a900460ff1615611990576040517f08c379a00000000000000000000000000000000000000000000000000000000081526004018080602001828103825260108152602001807f436f6e747261637420697320646561640000000000000000000000000000000081525060200191505060405180910390fd5b6001600281111561199d57fe5b6003600083815260200190815260200160002060060160149054906101000a900460ff1660028111156119cc57fe5b146119d657600080fd5b6003600082815260200190815260200160002060060160009054906101000a900473ffffffffffffffffffffffffffffffffffffffff1673ffffffffffffffffffffffffffffffffffffffff163373ffffffffffffffffffffffffffffffffffffffff1614611a90576040517f08c379a000000000000000000000000000000000000000000000000000000000815260040180806020018281038252602f815260200180612313602f913960400191505060405180910390fd5b60036000828152602001908152602001600020600001543414611afe576040517f08c379a00000000000000000000000000000000000000000000000000000000081526004018080602001828103825260338152602001806123426033913960400191505060405180910390fd5b60016002811115611b0b57fe5b6003600083815260200190815260200160002060060160149054906101000a900460ff166002811115611b3a57fe5b14611b4457600080fd5b60026003600083815260200190815260200160002060060160146101000a81548160ff02191690836002811115611b7757fe5b021790555060006003600083815260200190815260200160002060050160009054906101000a900473ffffffffffffffffffffffffffffffffffffffff1673ffffffffffffffffffffffffffffffffffffffff163460405180600001905060006040518083038185875af1925050503d8060008114611c12576040519150601f19603f3d011682016040523d82523d6000602084013e611c17565b606091505b5050905080611c8e576040517f08c379a00000000000000000000000000000000000000000000000000000000081526004018080602001828103825260178152602001807f4572726f723a205472616e73666572206661696c65642e00000000000000000081525060200191505060405180910390fd5b34823373ffffffffffffffffffffffffffffffffffffffff167ff6a729c51ee4f70fe8ab76f78435ae19604ef1532842ac4ba1006a6fa85ebada60405160405180910390a45050565b60008060009054906101000a900473ffffffffffffffffffffffffffffffffffffffff16905090565b8060016002811115611d0e57fe5b6003600083815260200190815260200160002060060160149054906101000a900460ff166002811115611d3d57fe5b14611db0576040517f08c379a00000000000000000000000000000000000000000000000000000000081526004018080602001828103825260178152602001807f54686973206c6f616e206973206e6f742061637469766500000000000000000081525060200191505060405180910390fd5b6003600083815260200190815260200160002060060160009054906101000a900473ffffffffffffffffffffffffffffffffffffffff1673ffffffffffffffffffffffffffffffffffffffff163373ffffffffffffffffffffffffffffffffffffffff1614611e6a576040517f08c379a00000000000000000000000000000000000000000000000000000000081526004018080602001828103825260228152602001806122f16022913960400191505060405180910390fd5b600060036000848152602001908152602001600020600101541415611ef7576040517f08c379a000000000000000000000000000000000000000000000000000000000815260040180806020018281038252601e8152602001807f546865726520617265206e6f2066756e647320746f207265747269657665000081525060200191505060405180910390fd5b6000600360008481526020019081526020016000206001015490506000600360008581526020019081526020016000206001018190555060003373ffffffffffffffffffffffffffffffffffffffff168260405180600001905060006040518083038185875af1925050503d8060008114611f8e576040519150601f19603f3d011682016040523d82523d6000602084013e611f93565b606091505b505090508061200a576040517f08c379a00000000000000000000000000000000000000000000000000000000081526004018080602001828103825260178152602001807f4572726f723a205472616e73666572206661696c65642e00000000000000000081525060200191505060405180910390fd5b813373ffffffffffffffffffffffffffffffffffffffff16857f07fa76b09de7d490ab4ed35bf0365df1474b9d21891fc1cfdf1c26f725965dd460405160405180910390a450505050565b60025481565b60036020528060005260406000206000915090508060000154908060010154908060020154908060030154908060040154908060050160009054906101000a900473ffffffffffffffffffffffffffffffffffffffff16908060060160009054906101000a900473ffffffffffffffffffffffffffffffffffffffff16908060060160149054906101000a900460ff16908060070154905089565b6000808314156121095760009050612176565b600082840290508284828161211a57fe5b0414612171576040517f08c379a00000000000000000000000000000000000000000000000000000000081526004018080602001828103825260218152602001806122af6021913960400191505060405180910390fd5b809150505b92915050565b60006121be83836040518060400160405280601a81526020017f536166654d6174683a206469766973696f6e206279207a65726f0000000000008152506121c6565b905092915050565b60008083118290612272576040517f08c379a00000000000000000000000000000000000000000000000000000000081526004018080602001828103825283818151815260200191508051906020019080838360005b8381101561223757808201518184015260208101905061221c565b50505050905090810190601f1680156122645780820380516001836020036101000a031916815260200191505b509250505060405180910390fd5b50600083858161227e57fe5b04905080915050939250505056fe4c6f616e206d757374206861766520616e206173736f6369617465642056616c7565536166654d6174683a206d756c7469706c69636174696f6e206f766572666c6f77596f75206d757374206465706f7369742074686520726967687420616d6f756e7452657175697265732074686520626f72726f776572206f662074686174206c6f616e596f75206d757374206265207468652061737369676e656420626f72726f77657220666f722074686973206c6f616e596f75206d75737420706179207468652066756c6c206c6f616e20616d6f756e7420696e636c7564696e67696e746572657374a265627a7a723158207760c3dabed0ffa31442641c4146875b15ca87339b1f0ce2f1f225524d6dcc0464736f6c634300050c0032",
  "source": "pragma solidity >=0.5.0 <0.6.0;\n\nimport \"openzeppelin-solidity/contracts/math/SafeMath.sol\";\nimport \"./Stoppable.sol\";\n\ncontract Loan is Stoppable {\n\n   using SafeMath for uint256;\n   \n    enum Status {\n        PENDING,\n        ACTIVE,\n        RESOLVED\n        //DEFAULT\n    }\n    \n    struct Loans {\n        uint fullAmount;\n        uint amount;\n        uint interest;\n        uint ID;\n        uint end;\n        address lender;\n        address borrower;\n        Status status;\n        uint requiredDeposit;\n    }\n    \n    uint public loanCounter;\n    uint public loanId;\n\n    event LogLoanCreation(address indexed _lender, uint indexed _loanId);\n    event LogDeposit(address indexed _borrower, uint indexed _depositAmount);\n    event LogRetrieved(uint indexed _loanID, address indexed _borrower, uint indexed _amountRetrieved);\n    event LogPaid(address indexed _borrower, uint indexed _loanID, uint indexed _paidBack);\n    \n    mapping(uint256 => Loans) public loans;\n\n    modifier paidDeposit(uint _loanId) {\n         require(loans[_loanId].status == Status.ACTIVE, \"This loan is not active\");\n        _;\n    }\n    \n    constructor() public {\n        loanId = 1;\n    }\n    \n    function createLoan(uint _interest, uint _loanPeriod, address _borrower, uint _depositPercentage) \n    external \n    payable\n    whenRunning\n    whenAlive\n    returns(bool)\n    {   \n        require(_borrower != address(0x0), \"Borrower's address cannot be 0\");\n        require(msg.value > 0, \"Loan must have an associated Value\");\n        emit LogLoanCreation(msg.sender, loanId);\n        \n        uint256 depositPercentage = msg.value.mul(_depositPercentage).div(100);\n        uint256 fullAmount = msg.value + _interest;\n        \n        loans[loanId] = Loans({\n            fullAmount: fullAmount,\n            amount: msg.value,\n            interest: _interest,\n            ID: loanId,\n            end: now + _loanPeriod,\n            lender: msg.sender,\n            borrower: _borrower,\n            status: Status.PENDING,\n            requiredDeposit: depositPercentage\n        });\n        \n        loanId = loanId + 1;\n        return true;\n    }\n    \n    function payLoanDeposit(uint _loanId)\n    external\n    payable\n    whenRunning\n    whenAlive\n    {   require(loans[_loanId].status == Status.PENDING);\n        require(msg.value == loans[_loanId].requiredDeposit, \"You must deposit the right amount\");\n        require(msg.sender == loans[_loanId].borrower, \"You must be the assigned borrower for this loan\");\n        loans[_loanId].status = Status.ACTIVE;\n        loans[_loanId].fullAmount -= loans[_loanId].requiredDeposit;\n        (bool success, ) = loans[_loanId].lender.call.value(msg.value)(\"\");\n        require(success, \"Error: Transfer failed.\");\n        emit LogDeposit(msg.sender, msg.value);\n    }\n    \n    // function isFinished() {\n    // const now = new Date().getTime();\n    // const loanEnd =  (new Date(parseInt(loan.end) * 1000)).getTime();\n    // return (loanEnd > now) ? false : true;\n    //}\n\n    function payBackLoan(uint _loanId) \n    public \n    payable\n    whenRunning\n    whenAlive\n    {   require(loans[_loanId].status == Status.ACTIVE);\n        require(msg.sender == loans[_loanId].borrower, \"You must be the assigned borrower for this loan\");\n        require(msg.value == (loans[_loanId].fullAmount), \"You must pay the full loan amount includinginterest\");\n        require(loans[_loanId].status == Status.ACTIVE);\n        // if (now <= loans[_loanId].end) {\n        //     loans[_loanId].status = Status.DEFAULT;\n        // }\n        \n        loans[_loanId].status = Status.RESOLVED;\n        (bool success, ) = loans[_loanId].lender.call.value(msg.value)(\"\");\n        require(success, \"Error: Transfer failed.\");\n        \n        emit LogPaid(msg.sender, _loanId, msg.value);\n    }\n\n    function retrieveLoanFunds(uint _loanId)\n    public\n    payable\n    paidDeposit(_loanId)\n    {\n        require(msg.sender == loans[_loanId].borrower, \"Requires the borrower of that loan\");\n        require(loans[_loanId].amount != 0, \"There are no funds to retrieve\");\n        uint256 loanAmount = loans[_loanId].amount;\n       \n        loans[_loanId].amount = 0;\n        (bool success, ) = msg.sender.call.value(loanAmount)(\"\");\n        require(success, \"Error: Transfer failed.\");\n        \n        emit LogRetrieved(_loanId, msg.sender, loanAmount);\n    }\n    \n    function retrieveLoans(uint _loanId)\n    public\n    view\n    whenRunning\n    whenAlive\n    returns(\n    uint fullAmount,\n    uint amount,\n    uint interest,\n    uint loanPeriod,\n    address lender,\n    address borrower,\n    uint status,\n    uint requiredDeposit\n    )\n    {\n        fullAmount = loans[_loanId].fullAmount;\n        amount = loans[_loanId].amount;\n        interest = loans[_loanId].interest;\n        loanPeriod = loans[_loanId].end;\n        lender = loans[_loanId].lender;\n        borrower = loans[_loanId].borrower;\n        status = uint(loans[_loanId].status);\n        requiredDeposit = loans[_loanId].requiredDeposit;\n        return (fullAmount, amount, interest, loanPeriod, lender, borrower, status, requiredDeposit);\n    }\n}\n\n\n",
  "sourcePath": "/home/santito/Desktop/LOAN PROJECT/contracts/Loan.sol",
  "compiler": {
    "name": "solc",
    "version": "0.5.12+commit.7709ece9.Emscripten.clang"
  },
  "schemaVersion": "3.0.19",
  "updatedAt": "2020-01-12T02:52:04.960Z",
  "devdoc": {
    "methods": {}
  },
  "userdoc": {
    "methods": {}
  }
}