{
  "contractName": "Loan",
  "abi": [
    {
      "inputs": [],
      "payable": false,
      "stateMutability": "nonpayable",
      "type": "constructor"
    },
    {
      "anonymous": false,
      "inputs": [
        {
          "indexed": true,
          "internalType": "address",
          "name": "_borrower",
          "type": "address"
        },
        {
          "indexed": true,
          "internalType": "uint256",
          "name": "_depositAmount",
          "type": "uint256"
        }
      ],
      "name": "LogDeposit",
      "type": "event"
    },
    {
      "anonymous": false,
      "inputs": [
        {
          "indexed": false,
          "internalType": "address",
          "name": "_killer",
          "type": "address"
        }
      ],
      "name": "LogKilled",
      "type": "event"
    },
    {
      "anonymous": false,
      "inputs": [
        {
          "indexed": true,
          "internalType": "address",
          "name": "owner",
          "type": "address"
        },
        {
          "indexed": true,
          "internalType": "uint256",
          "name": "contractAmount",
          "type": "uint256"
        }
      ],
      "name": "LogKilledWithdraw",
      "type": "event"
    },
    {
      "anonymous": false,
      "inputs": [
        {
          "indexed": true,
          "internalType": "address",
          "name": "_lender",
          "type": "address"
        },
        {
          "indexed": true,
          "internalType": "uint256",
          "name": "_loanId",
          "type": "uint256"
        }
      ],
      "name": "LogLoanCreation",
      "type": "event"
    },
    {
      "anonymous": false,
      "inputs": [
        {
          "indexed": true,
          "internalType": "address",
          "name": "_borrower",
          "type": "address"
        },
        {
          "indexed": true,
          "internalType": "uint256",
          "name": "_loanID",
          "type": "uint256"
        },
        {
          "indexed": true,
          "internalType": "uint256",
          "name": "_paidBack",
          "type": "uint256"
        }
      ],
      "name": "LogPaid",
      "type": "event"
    },
    {
      "anonymous": false,
      "inputs": [
        {
          "indexed": false,
          "internalType": "address",
          "name": "_owner",
          "type": "address"
        }
      ],
      "name": "LogResumed",
      "type": "event"
    },
    {
      "anonymous": false,
      "inputs": [
        {
          "indexed": true,
          "internalType": "uint256",
          "name": "_loanID",
          "type": "uint256"
        },
        {
          "indexed": true,
          "internalType": "address",
          "name": "_borrower",
          "type": "address"
        },
        {
          "indexed": true,
          "internalType": "uint256",
          "name": "_amountRetrieved",
          "type": "uint256"
        }
      ],
      "name": "LogRetrieved",
      "type": "event"
    },
    {
      "anonymous": false,
      "inputs": [
        {
          "indexed": false,
          "internalType": "address",
          "name": "_owner",
          "type": "address"
        }
      ],
      "name": "LogStopped",
      "type": "event"
    },
    {
      "anonymous": false,
      "inputs": [
        {
          "indexed": false,
          "internalType": "address",
          "name": "newOwner",
          "type": "address"
        }
      ],
      "name": "OwnershipTransferred",
      "type": "event"
    },
    {
      "constant": true,
      "inputs": [],
      "name": "getOwner",
      "outputs": [
        {
          "internalType": "address",
          "name": "_owner",
          "type": "address"
        }
      ],
      "payable": false,
      "stateMutability": "view",
      "type": "function"
    },
    {
      "constant": false,
      "inputs": [],
      "name": "kill",
      "outputs": [],
      "payable": false,
      "stateMutability": "nonpayable",
      "type": "function"
    },
    {
      "constant": true,
      "inputs": [],
      "name": "loanCounter",
      "outputs": [
        {
          "internalType": "uint256",
          "name": "",
          "type": "uint256"
        }
      ],
      "payable": false,
      "stateMutability": "view",
      "type": "function"
    },
    {
      "constant": true,
      "inputs": [],
      "name": "loanId",
      "outputs": [
        {
          "internalType": "uint256",
          "name": "",
          "type": "uint256"
        }
      ],
      "payable": false,
      "stateMutability": "view",
      "type": "function"
    },
    {
      "constant": true,
      "inputs": [
        {
          "internalType": "uint256",
          "name": "",
          "type": "uint256"
        }
      ],
      "name": "loans",
      "outputs": [
        {
          "internalType": "uint256",
          "name": "fullAmount",
          "type": "uint256"
        },
        {
          "internalType": "uint256",
          "name": "amount",
          "type": "uint256"
        },
        {
          "internalType": "uint256",
          "name": "interest",
          "type": "uint256"
        },
        {
          "internalType": "uint256",
          "name": "ID",
          "type": "uint256"
        },
        {
          "internalType": "address",
          "name": "lender",
          "type": "address"
        },
        {
          "internalType": "address",
          "name": "borrower",
          "type": "address"
        },
        {
          "internalType": "enum Loan.Status",
          "name": "status",
          "type": "uint8"
        },
        {
          "internalType": "uint256",
          "name": "requiredDeposit",
          "type": "uint256"
        }
      ],
      "payable": false,
      "stateMutability": "view",
      "type": "function"
    },
    {
      "constant": false,
      "inputs": [],
      "name": "resume",
      "outputs": [],
      "payable": false,
      "stateMutability": "nonpayable",
      "type": "function"
    },
    {
      "constant": false,
      "inputs": [
        {
          "internalType": "address",
          "name": "newOwner",
          "type": "address"
        }
      ],
      "name": "setOwner",
      "outputs": [
        {
          "internalType": "bool",
          "name": "success",
          "type": "bool"
        }
      ],
      "payable": false,
      "stateMutability": "nonpayable",
      "type": "function"
    },
    {
      "constant": false,
      "inputs": [],
      "name": "stop",
      "outputs": [],
      "payable": false,
      "stateMutability": "nonpayable",
      "type": "function"
    },
    {
      "constant": false,
      "inputs": [
        {
          "internalType": "uint256",
          "name": "_interest",
          "type": "uint256"
        },
        {
          "internalType": "address",
          "name": "_borrower",
          "type": "address"
        },
        {
          "internalType": "uint256",
          "name": "_depositPercentage",
          "type": "uint256"
        }
      ],
      "name": "createLoan",
      "outputs": [
        {
          "internalType": "bool",
          "name": "",
          "type": "bool"
        }
      ],
      "payable": true,
      "stateMutability": "payable",
      "type": "function"
    },
    {
      "constant": false,
      "inputs": [
        {
          "internalType": "uint256",
          "name": "_loanId",
          "type": "uint256"
        }
      ],
      "name": "payLoanDeposit",
      "outputs": [],
      "payable": true,
      "stateMutability": "payable",
      "type": "function"
    },
    {
      "constant": false,
      "inputs": [
        {
          "internalType": "uint256",
          "name": "_loanId",
          "type": "uint256"
        }
      ],
      "name": "payBackLoan",
      "outputs": [],
      "payable": true,
      "stateMutability": "payable",
      "type": "function"
    },
    {
      "constant": false,
      "inputs": [
        {
          "internalType": "uint256",
          "name": "_loanId",
          "type": "uint256"
        }
      ],
      "name": "retrieveLoanFunds",
      "outputs": [],
      "payable": true,
      "stateMutability": "payable",
      "type": "function"
    },
    {
      "constant": true,
      "inputs": [
        {
          "internalType": "uint256",
          "name": "_loanId",
          "type": "uint256"
        }
      ],
      "name": "retrieveLoans",
      "outputs": [
        {
          "internalType": "uint256",
          "name": "fullAmount",
          "type": "uint256"
        },
        {
          "internalType": "uint256",
          "name": "amount",
          "type": "uint256"
        },
        {
          "internalType": "uint256",
          "name": "interest",
          "type": "uint256"
        },
        {
          "internalType": "address",
          "name": "lender",
          "type": "address"
        },
        {
          "internalType": "address",
          "name": "borrower",
          "type": "address"
        },
        {
          "internalType": "uint256",
          "name": "status",
          "type": "uint256"
        },
        {
          "internalType": "uint256",
          "name": "requiredDeposit",
          "type": "uint256"
        }
      ],
      "payable": false,
      "stateMutability": "view",
      "type": "function"
    },
    {
      "constant": false,
      "inputs": [],
      "name": "withdrawWhenKilled",
      "outputs": [],
      "payable": false,
      "stateMutability": "nonpayable",
      "type": "function"
    }
  ],
  "bytecode": "0x608060405234801561001057600080fd5b50336000806101000a81548173ffffffffffffffffffffffffffffffffffffffff021916908373ffffffffffffffffffffffffffffffffffffffff16021790555060008060146101000a81548160ff02191690831515021790555060008060156101000a81548160ff02191690831515021790555060016002819055506128fa8061009c6000396000f3fe6080604052600436106100dd5760003560e01c806344cce2761161007f578063adfa63b411610059578063adfa63b4146103af578063c21c29ed146103c6578063c95669a5146103f4578063e1ec3c681461041f576100dd565b806344cce276146102fc5780636faa8b3f1461032a578063893d20e814610358576100dd565b80631b15cee6116100bb5780631b15cee61461017957806334d9289e146101e95780633a98b4881461021457806341c0e1b5146102e5576100dd565b8063046f7da2146100e257806307da68f5146100f957806313af403514610110575b600080fd5b3480156100ee57600080fd5b506100f7610505565b005b34801561010557600080fd5b5061010e61074b565b005b34801561011c57600080fd5b5061015f6004803603602081101561013357600080fd5b81019080803573ffffffffffffffffffffffffffffffffffffffff169060200190929190505050610993565b604051808215151515815260200191505060405180910390f35b6101cf6004803603606081101561018f57600080fd5b8101908080359060200190929190803573ffffffffffffffffffffffffffffffffffffffff16906020019092919080359060200190929190505050610ba6565b604051808215151515815260200191505060405180910390f35b3480156101f557600080fd5b506101fe610fbe565b6040518082815260200191505060405180910390f35b34801561022057600080fd5b5061024d6004803603602081101561023757600080fd5b8101908080359060200190929190505050610fc4565b604051808881526020018781526020018681526020018573ffffffffffffffffffffffffffffffffffffffff1673ffffffffffffffffffffffffffffffffffffffff1681526020018473ffffffffffffffffffffffffffffffffffffffff1673ffffffffffffffffffffffffffffffffffffffff16815260200183815260200182815260200197505050505050505060405180910390f35b3480156102f157600080fd5b506102fa6111fb565b005b6103286004803603602081101561031257600080fd5b8101908080359060200190929190505050611442565b005b6103566004803603602081101561034057600080fd5b810190808035906020019092919050505061190a565b005b34801561036457600080fd5b5061036d611d7a565b604051808273ffffffffffffffffffffffffffffffffffffffff1673ffffffffffffffffffffffffffffffffffffffff16815260200191505060405180910390f35b3480156103bb57600080fd5b506103c4611da3565b005b6103f2600480360360208110156103dc57600080fd5b81019080803590602001909291905050506120c5565b005b34801561040057600080fd5b5061040961241a565b6040518082815260200191505060405180910390f35b34801561042b57600080fd5b506104586004803603602081101561044257600080fd5b8101908080359060200190929190505050612420565b604051808981526020018881526020018781526020018681526020018573ffffffffffffffffffffffffffffffffffffffff1673ffffffffffffffffffffffffffffffffffffffff1681526020018473ffffffffffffffffffffffffffffffffffffffff1673ffffffffffffffffffffffffffffffffffffffff1681526020018360028111156104e457fe5b60ff1681526020018281526020019850505050505050505060405180910390f35b6000809054906101000a900473ffffffffffffffffffffffffffffffffffffffff1673ffffffffffffffffffffffffffffffffffffffff163373ffffffffffffffffffffffffffffffffffffffff16146105c7576040517f08c379a000000000000000000000000000000000000000000000000000000000815260040180806020018281038252601f8152602001807f4572726f723a206d73672e73656e646572206d757374206265206f776e65720081525060200191505060405180910390fd5b600060159054906101000a900460ff161561064a576040517f08c379a00000000000000000000000000000000000000000000000000000000081526004018080602001828103825260108152602001807f436f6e747261637420697320646561640000000000000000000000000000000081525060200191505060405180910390fd5b600060149054906101000a900460ff166106cc576040517f08c379a00000000000000000000000000000000000000000000000000000000081526004018080602001828103825260138152602001807f436f6e74726163742069732072756e6e696e670000000000000000000000000081525060200191505060405180910390fd5b60008060146101000a81548160ff0219169083151502179055507f29560ba70e3537fccc61029db8de08e30408a3f131625765c51e3e972a7867ad33604051808273ffffffffffffffffffffffffffffffffffffffff1673ffffffffffffffffffffffffffffffffffffffff16815260200191505060405180910390a1565b6000809054906101000a900473ffffffffffffffffffffffffffffffffffffffff1673ffffffffffffffffffffffffffffffffffffffff163373ffffffffffffffffffffffffffffffffffffffff161461080d576040517f08c379a000000000000000000000000000000000000000000000000000000000815260040180806020018281038252601f8152602001807f4572726f723a206d73672e73656e646572206d757374206265206f776e65720081525060200191505060405180910390fd5b600060159054906101000a900460ff1615610890576040517f08c379a00000000000000000000000000000000000000000000000000000000081526004018080602001828103825260108152602001807f436f6e747261637420697320646561640000000000000000000000000000000081525060200191505060405180910390fd5b600060149054906101000a900460ff1615610913576040517f08c379a00000000000000000000000000000000000000000000000000000000081526004018080602001828103825260138152602001807f436f6e7472616374206973207061757365642e0000000000000000000000000081525060200191505060405180910390fd5b6001600060146101000a81548160ff0219169083151502179055507fae2ff8b88a09be6cc9de7aa5e8efc037af3dfdb611a1217f8c70fc50975b8a8033604051808273ffffffffffffffffffffffffffffffffffffffff1673ffffffffffffffffffffffffffffffffffffffff16815260200191505060405180910390a1565b60008060009054906101000a900473ffffffffffffffffffffffffffffffffffffffff1673ffffffffffffffffffffffffffffffffffffffff163373ffffffffffffffffffffffffffffffffffffffff1614610a57576040517f08c379a000000000000000000000000000000000000000000000000000000000815260040180806020018281038252601f8152602001807f4572726f723a206d73672e73656e646572206d757374206265206f776e65720081525060200191505060405180910390fd5b600073ffffffffffffffffffffffffffffffffffffffff168273ffffffffffffffffffffffffffffffffffffffff161415610afa576040517f08c379a000000000000000000000000000000000000000000000000000000000815260040180806020018281038252601a8152602001807f4572726f723a20416464726573732063616e6e6f74206265203000000000000081525060200191505060405180910390fd5b7f04dba622d284ed0014ee4b9a6a68386be1a4c08a4913ae272de89199cc68616382604051808273ffffffffffffffffffffffffffffffffffffffff1673ffffffffffffffffffffffffffffffffffffffff16815260200191505060405180910390a1816000806101000a81548173ffffffffffffffffffffffffffffffffffffffff021916908373ffffffffffffffffffffffffffffffffffffffff16021790555060019050919050565b60008060149054906101000a900460ff1615610c2a576040517f08c379a00000000000000000000000000000000000000000000000000000000081526004018080602001828103825260138152602001807f436f6e7472616374206973207061757365642e0000000000000000000000000081525060200191505060405180910390fd5b600060159054906101000a900460ff1615610cad576040517f08c379a00000000000000000000000000000000000000000000000000000000081526004018080602001828103825260108152602001807f436f6e747261637420697320646561640000000000000000000000000000000081525060200191505060405180910390fd5b600073ffffffffffffffffffffffffffffffffffffffff168373ffffffffffffffffffffffffffffffffffffffff161415610d50576040517f08c379a000000000000000000000000000000000000000000000000000000000815260040180806020018281038252601e8152602001807f426f72726f776572277320616464726573732063616e6e6f742062652030000081525060200191505060405180910390fd5b60003411610da9576040517f08c379a00000000000000000000000000000000000000000000000000000000081526004018080602001828103825260228152602001806127de6022913960400191505060405180910390fd5b6002543373ffffffffffffffffffffffffffffffffffffffff167fe9f8c22c262ea6d87192756704ee1e94485d1875fda64d70aa43f13021c281ad60405160405180910390a36000610e176064610e0985346124b590919063ffffffff16565b61253b90919063ffffffff16565b90506000610e2e863461258590919063ffffffff16565b905060405180610100016040528082815260200134815260200187815260200160025481526020013373ffffffffffffffffffffffffffffffffffffffff1681526020018673ffffffffffffffffffffffffffffffffffffffff16815260200160006002811115610e9b57fe5b8152602001838152506003600060025481526020019081526020016000206000820151816000015560208201518160010155604082015181600201556060820151816003015560808201518160040160006101000a81548173ffffffffffffffffffffffffffffffffffffffff021916908373ffffffffffffffffffffffffffffffffffffffff16021790555060a08201518160050160006101000a81548173ffffffffffffffffffffffffffffffffffffffff021916908373ffffffffffffffffffffffffffffffffffffffff16021790555060c08201518160050160146101000a81548160ff02191690836002811115610f9357fe5b021790555060e082015181600601559050506001600254016002819055506001925050509392505050565b60015481565b60008060008060008060008060149054906101000a900460ff1615611051576040517f08c379a00000000000000000000000000000000000000000000000000000000081526004018080602001828103825260138152602001807f436f6e7472616374206973207061757365642e0000000000000000000000000081525060200191505060405180910390fd5b600060159054906101000a900460ff16156110d4576040517f08c379a00000000000000000000000000000000000000000000000000000000081526004018080602001828103825260108152602001807f436f6e747261637420697320646561640000000000000000000000000000000081525060200191505060405180910390fd5b6003600089815260200190815260200160002060000154965060036000898152602001908152602001600020600101549550600360008981526020019081526020016000206002015494506003600089815260200190815260200160002060040160009054906101000a900473ffffffffffffffffffffffffffffffffffffffff1693506003600089815260200190815260200160002060050160009054906101000a900473ffffffffffffffffffffffffffffffffffffffff1692506003600089815260200190815260200160002060050160149054906101000a900460ff1660028111156111c057fe5b915060036000898152602001908152602001600020600601549050868686868686869650965096509650965096509650919395979092949650565b6000809054906101000a900473ffffffffffffffffffffffffffffffffffffffff1673ffffffffffffffffffffffffffffffffffffffff163373ffffffffffffffffffffffffffffffffffffffff16146112bd576040517f08c379a000000000000000000000000000000000000000000000000000000000815260040180806020018281038252601f8152602001807f4572726f723a206d73672e73656e646572206d757374206265206f776e65720081525060200191505060405180910390fd5b600060159054906101000a900460ff1615611340576040517f08c379a00000000000000000000000000000000000000000000000000000000081526004018080602001828103825260108152602001807f436f6e747261637420697320646561640000000000000000000000000000000081525060200191505060405180910390fd5b600060149054906101000a900460ff166113c2576040517f08c379a00000000000000000000000000000000000000000000000000000000081526004018080602001828103825260138152602001807f436f6e74726163742069732072756e6e696e670000000000000000000000000081525060200191505060405180910390fd5b6001600060156101000a81548160ff0219169083151502179055507fdd1d1672156846fdc9d6e65d5701535f177a41834051f5f7328be7f4252bcb3133604051808273ffffffffffffffffffffffffffffffffffffffff1673ffffffffffffffffffffffffffffffffffffffff16815260200191505060405180910390a1565b600060149054906101000a900460ff16156114c5576040517f08c379a00000000000000000000000000000000000000000000000000000000081526004018080602001828103825260138152602001807f436f6e7472616374206973207061757365642e0000000000000000000000000081525060200191505060405180910390fd5b600060159054906101000a900460ff1615611548576040517f08c379a00000000000000000000000000000000000000000000000000000000081526004018080602001828103825260108152602001807f436f6e747261637420697320646561640000000000000000000000000000000081525060200191505060405180910390fd5b6000600281111561155557fe5b6003600083815260200190815260200160002060050160149054906101000a900460ff16600281111561158457fe5b146115f7576040517f08c379a000000000000000000000000000000000000000000000000000000000815260040180806020018281038252601b8152602001807f4c6f616e20737461747573206d7573742062652050454e44494e47000000000081525060200191505060405180910390fd5b60036000828152602001908152602001600020600601543414611665576040517f08c379a00000000000000000000000000000000000000000000000000000000081526004018080602001828103825260218152602001806128216021913960400191505060405180910390fd5b6003600082815260200190815260200160002060050160009054906101000a900473ffffffffffffffffffffffffffffffffffffffff1673ffffffffffffffffffffffffffffffffffffffff163373ffffffffffffffffffffffffffffffffffffffff161461171f576040517f08c379a000000000000000000000000000000000000000000000000000000000815260040180806020018281038252602f815260200180612864602f913960400191505060405180910390fd5b60016003600083815260200190815260200160002060050160146101000a81548160ff0219169083600281111561175257fe5b02179055506117966003600083815260200190815260200160002060060154600360008481526020019081526020016000206000015461260d90919063ffffffff16565b600360008381526020019081526020016000206000018190555060006003600083815260200190815260200160002060040160009054906101000a900473ffffffffffffffffffffffffffffffffffffffff1673ffffffffffffffffffffffffffffffffffffffff163460405180600001905060006040518083038185875af1925050503d8060008114611846576040519150601f19603f3d011682016040523d82523d6000602084013e61184b565b606091505b50509050806118c2576040517f08c379a00000000000000000000000000000000000000000000000000000000081526004018080602001828103825260178152602001807f4572726f723a205472616e73666572206661696c65642e00000000000000000081525060200191505060405180910390fd5b343373ffffffffffffffffffffffffffffffffffffffff167f1b851e1031ef35a238e6c67d0c7991162390df915f70eaf9098dbf0b175a619860405160405180910390a35050565b600060149054906101000a900460ff161561198d576040517f08c379a00000000000000000000000000000000000000000000000000000000081526004018080602001828103825260138152602001807f436f6e7472616374206973207061757365642e0000000000000000000000000081525060200191505060405180910390fd5b600060159054906101000a900460ff1615611a10576040517f08c379a00000000000000000000000000000000000000000000000000000000081526004018080602001828103825260108152602001807f436f6e747261637420697320646561640000000000000000000000000000000081525060200191505060405180910390fd5b6003600082815260200190815260200160002060050160009054906101000a900473ffffffffffffffffffffffffffffffffffffffff1673ffffffffffffffffffffffffffffffffffffffff163373ffffffffffffffffffffffffffffffffffffffff1614611aca576040517f08c379a000000000000000000000000000000000000000000000000000000000815260040180806020018281038252602f815260200180612864602f913960400191505060405180910390fd5b60036000828152602001908152602001600020600001543414611b38576040517f08c379a00000000000000000000000000000000000000000000000000000000081526004018080602001828103825260338152602001806128936033913960400191505060405180910390fd5b60016002811115611b4557fe5b6003600083815260200190815260200160002060050160149054906101000a900460ff166002811115611b7457fe5b14611be7576040517f08c379a000000000000000000000000000000000000000000000000000000000815260040180806020018281038252601a8152602001807f4c6f616e20737461747573206d7573742062652041435449564500000000000081525060200191505060405180910390fd5b60026003600083815260200190815260200160002060050160146101000a81548160ff02191690836002811115611c1a57fe5b021790555060006003600083815260200190815260200160002060040160009054906101000a900473ffffffffffffffffffffffffffffffffffffffff1673ffffffffffffffffffffffffffffffffffffffff163460405180600001905060006040518083038185875af1925050503d8060008114611cb5576040519150601f19603f3d011682016040523d82523d6000602084013e611cba565b606091505b5050905080611d31576040517f08c379a00000000000000000000000000000000000000000000000000000000081526004018080602001828103825260178152602001807f4572726f723a205472616e73666572206661696c65642e00000000000000000081525060200191505060405180910390fd5b34823373ffffffffffffffffffffffffffffffffffffffff167ff6a729c51ee4f70fe8ab76f78435ae19604ef1532842ac4ba1006a6fa85ebada60405160405180910390a45050565b60008060009054906101000a900473ffffffffffffffffffffffffffffffffffffffff16905090565b600060159054906101000a900460ff16611e25576040517f08c379a00000000000000000000000000000000000000000000000000000000081526004018080602001828103825260118152602001807f436f6e747261637420697320616c69766500000000000000000000000000000081525060200191505060405180910390fd5b6000809054906101000a900473ffffffffffffffffffffffffffffffffffffffff1673ffffffffffffffffffffffffffffffffffffffff163373ffffffffffffffffffffffffffffffffffffffff1614611ee7576040517f08c379a000000000000000000000000000000000000000000000000000000000815260040180806020018281038252601f8152602001807f4572726f723a206d73672e73656e646572206d757374206265206f776e65720081525060200191505060405180910390fd5b60003073ffffffffffffffffffffffffffffffffffffffff163111611f74576040517f08c379a000000000000000000000000000000000000000000000000000000000815260040180806020018281038252601c8152602001807f4572726f723a2054686520636f6e747261637420697320656d7074790000000081525060200191505060405180910390fd5b60003373ffffffffffffffffffffffffffffffffffffffff163073ffffffffffffffffffffffffffffffffffffffff163160405180600001905060006040518083038185875af1925050503d8060008114611feb576040519150601f19603f3d011682016040523d82523d6000602084013e611ff0565b606091505b5050905080612067576040517f08c379a00000000000000000000000000000000000000000000000000000000081526004018080602001828103825260178152602001807f4572726f723a205472616e73666572206661696c65642e00000000000000000081525060200191505060405180910390fd5b3073ffffffffffffffffffffffffffffffffffffffff16313373ffffffffffffffffffffffffffffffffffffffff167f528177d13e940a4046f20556c874626926405065674cbfe290eb1aae6ea44e1560405160405180910390a350565b80600160028111156120d357fe5b6003600083815260200190815260200160002060050160149054906101000a900460ff16600281111561210257fe5b14612175576040517f08c379a00000000000000000000000000000000000000000000000000000000081526004018080602001828103825260178152602001807f54686973206c6f616e206973206e6f742061637469766500000000000000000081525060200191505060405180910390fd5b6003600083815260200190815260200160002060050160009054906101000a900473ffffffffffffffffffffffffffffffffffffffff1673ffffffffffffffffffffffffffffffffffffffff163373ffffffffffffffffffffffffffffffffffffffff161461222f576040517f08c379a00000000000000000000000000000000000000000000000000000000081526004018080602001828103825260228152602001806128426022913960400191505060405180910390fd5b6000600360008481526020019081526020016000206001015414156122bc576040517f08c379a000000000000000000000000000000000000000000000000000000000815260040180806020018281038252601e8152602001807f546865726520617265206e6f2066756e647320746f207265747269657665000081525060200191505060405180910390fd5b6000600360008481526020019081526020016000206001015490506000600360008581526020019081526020016000206001018190555060003373ffffffffffffffffffffffffffffffffffffffff168260405180600001905060006040518083038185875af1925050503d8060008114612353576040519150601f19603f3d011682016040523d82523d6000602084013e612358565b606091505b50509050806123cf576040517f08c379a00000000000000000000000000000000000000000000000000000000081526004018080602001828103825260178152602001807f4572726f723a205472616e73666572206661696c65642e00000000000000000081525060200191505060405180910390fd5b813373ffffffffffffffffffffffffffffffffffffffff16857f07fa76b09de7d490ab4ed35bf0365df1474b9d21891fc1cfdf1c26f725965dd460405160405180910390a450505050565b60025481565b60036020528060005260406000206000915090508060000154908060010154908060020154908060030154908060040160009054906101000a900473ffffffffffffffffffffffffffffffffffffffff16908060050160009054906101000a900473ffffffffffffffffffffffffffffffffffffffff16908060050160149054906101000a900460ff16908060060154905088565b6000808314156124c85760009050612535565b60008284029050828482816124d957fe5b0414612530576040517f08c379a00000000000000000000000000000000000000000000000000000000081526004018080602001828103825260218152602001806128006021913960400191505060405180910390fd5b809150505b92915050565b600061257d83836040518060400160405280601a81526020017f536166654d6174683a206469766973696f6e206279207a65726f000000000000815250612657565b905092915050565b600080828401905083811015612603576040517f08c379a000000000000000000000000000000000000000000000000000000000815260040180806020018281038252601b8152602001807f536166654d6174683a206164646974696f6e206f766572666c6f77000000000081525060200191505060405180910390fd5b8091505092915050565b600061264f83836040518060400160405280601e81526020017f536166654d6174683a207375627472616374696f6e206f766572666c6f77000081525061271d565b905092915050565b60008083118290612703576040517f08c379a00000000000000000000000000000000000000000000000000000000081526004018080602001828103825283818151815260200191508051906020019080838360005b838110156126c85780820151818401526020810190506126ad565b50505050905090810190601f1680156126f55780820380516001836020036101000a031916815260200191505b509250505060405180910390fd5b50600083858161270f57fe5b049050809150509392505050565b60008383111582906127ca576040517f08c379a00000000000000000000000000000000000000000000000000000000081526004018080602001828103825283818151815260200191508051906020019080838360005b8381101561278f578082015181840152602081019050612774565b50505050905090810190601f1680156127bc5780820380516001836020036101000a031916815260200191505b509250505060405180910390fd5b506000838503905080915050939250505056fe4c6f616e206d757374206861766520616e206173736f6369617465642056616c7565536166654d6174683a206d756c7469706c69636174696f6e206f766572666c6f77596f75206d757374206465706f7369742074686520726967687420616d6f756e7452657175697265732074686520626f72726f776572206f662074686174206c6f616e596f75206d757374206265207468652061737369676e656420626f72726f77657220666f722074686973206c6f616e596f75206d75737420706179207468652066756c6c206c6f616e20616d6f756e7420696e636c7564696e67696e746572657374a265627a7a72315820a276acd7788931083b204492a21361fb8c100ed8603677cae1ce4c8f7de1449b64736f6c634300050c0032",
  "source": "pragma solidity >=0.5.0 <0.6.0;\n\nimport \"openzeppelin-solidity/contracts/math/SafeMath.sol\";\nimport \"./Stoppable.sol\";\n\ncontract Loan is Stoppable {\n\n   using SafeMath for uint256;\n\n    enum Status {\n        PENDING,\n        ACTIVE,\n        RESOLVED\n    }\n\n    struct Loans {\n        uint fullAmount;\n        uint amount;\n        uint interest;\n        uint ID;\n        address lender;\n        address borrower;\n        Status status;\n        uint requiredDeposit;\n    }\n\n    uint public loanCounter;\n    uint public loanId;\n\n    event LogLoanCreation(address indexed _lender, uint indexed _loanId);\n    event LogDeposit(address indexed _borrower, uint indexed _depositAmount);\n    event LogRetrieved(uint indexed _loanID, address indexed _borrower, uint indexed _amountRetrieved);\n    event LogPaid(address indexed _borrower, uint indexed _loanID, uint indexed _paidBack);\n    event LogKilledWithdraw(address indexed owner, uint indexed contractAmount);\n\n    mapping(uint256 => Loans) public loans;\n\n    modifier paidDeposit(uint _loanId) {\n         require(loans[_loanId].status == Status.ACTIVE, \"This loan is not active\");\n        _;\n    }\n\n    constructor() public {\n        loanId = 1;\n    }\n\n    function createLoan(uint _interest, address _borrower, uint _depositPercentage)\n    external\n    payable\n    whenRunning\n    whenAlive\n    returns(bool)\n    {\n        require(_borrower != address(0x0), \"Borrower's address cannot be 0\");\n        require(msg.value > 0, \"Loan must have an associated Value\");\n        emit LogLoanCreation(msg.sender, loanId);\n\n        uint256 depositPercentage = msg.value.mul(_depositPercentage).div(100);\n        uint256 fullAmount = msg.value.add(_interest);\n\n        loans[loanId] = Loans({\n            fullAmount: fullAmount,\n            amount: msg.value,\n            interest: _interest,\n            ID: loanId,\n            lender: msg.sender,\n            borrower: _borrower,\n            status: Status.PENDING,\n            requiredDeposit: depositPercentage\n        });\n\n        loanId = loanId + 1;\n        return true;\n    }\n\n    function payLoanDeposit(uint _loanId)\n    external\n    payable\n    whenRunning\n    whenAlive\n    {   require(loans[_loanId].status == Status.PENDING, \"Loan status must be PENDING\");\n        require(msg.value == loans[_loanId].requiredDeposit, \"You must deposit the right amount\");\n        require(msg.sender == loans[_loanId].borrower, \"You must be the assigned borrower for this loan\");\n        loans[_loanId].status = Status.ACTIVE;\n        loans[_loanId].fullAmount = loans[_loanId].fullAmount.sub(loans[_loanId].requiredDeposit);\n        (bool success, ) = loans[_loanId].lender.call.value(msg.value)(\"\");\n        require(success, \"Error: Transfer failed.\");\n        emit LogDeposit(msg.sender, msg.value);\n    }\n\n    function payBackLoan(uint _loanId)\n    public\n    payable\n    whenRunning\n    whenAlive\n    {\n        require(msg.sender == loans[_loanId].borrower, \"You must be the assigned borrower for this loan\");\n        require(msg.value == (loans[_loanId].fullAmount), \"You must pay the full loan amount includinginterest\");\n        require(loans[_loanId].status == Status.ACTIVE, \"Loan status must be ACTIVE\");\n\n        loans[_loanId].status = Status.RESOLVED;\n        (bool success, ) = loans[_loanId].lender.call.value(msg.value)(\"\");\n        require(success, \"Error: Transfer failed.\");\n\n        emit LogPaid(msg.sender, _loanId, msg.value);\n    }\n\n    function retrieveLoanFunds(uint _loanId)\n    public\n    payable\n    paidDeposit(_loanId)\n    {\n        require(msg.sender == loans[_loanId].borrower, \"Requires the borrower of that loan\");\n        require(loans[_loanId].amount != 0, \"There are no funds to retrieve\");\n        uint256 loanAmount = loans[_loanId].amount;\n\n        loans[_loanId].amount = 0;\n        (bool success, ) = msg.sender.call.value(loanAmount)(\"\");\n        require(success, \"Error: Transfer failed.\");\n\n        emit LogRetrieved(_loanId, msg.sender, loanAmount);\n    }\n\n    function retrieveLoans(uint _loanId)\n    public\n    view\n    whenRunning\n    whenAlive\n    returns(\n    uint fullAmount,\n    uint amount,\n    uint interest,\n    address lender,\n    address borrower,\n    uint status,\n    uint requiredDeposit\n    )\n    {\n        fullAmount = loans[_loanId].fullAmount;\n        amount = loans[_loanId].amount;\n        interest = loans[_loanId].interest;\n        lender = loans[_loanId].lender;\n        borrower = loans[_loanId].borrower;\n        status = uint(loans[_loanId].status);\n        requiredDeposit = loans[_loanId].requiredDeposit;\n        return (fullAmount, amount, interest, lender, borrower, status, requiredDeposit);\n    }\n\n    function withdrawWhenKilled()\n    whenKilled\n    onlyOwner\n    public\n    {\n        require(address(this).balance > 0, \"Error: The contract is empty\");\n        (bool success, ) = msg.sender.call.value(address(this).balance)(\"\");\n        require(success, \"Error: Transfer failed.\");\n        emit LogKilledWithdraw(msg.sender, address(this).balance);\n    }\n}\n\n\n",
  "sourcePath": "/home/santito/Desktop/LOAN PROJECT/contracts/Loan.sol",
  "compiler": {
    "name": "solc",
    "version": "0.5.12+commit.7709ece9.Emscripten.clang"
  },
  "schemaVersion": "3.0.19",
  "updatedAt": "2020-01-30T00:25:39.312Z",
  "networkType": "ethereum",
  "devdoc": {
    "methods": {}
  },
  "userdoc": {
    "methods": {}
  }
}