{
  "contractName": "Ownable",
  "abi": [
    {
      "inputs": [],
      "payable": false,
      "stateMutability": "nonpayable",
      "type": "constructor"
    },
    {
      "anonymous": false,
      "inputs": [
        {
          "indexed": false,
          "internalType": "address",
          "name": "newOwner",
          "type": "address"
        }
      ],
      "name": "OwnershipTransferred",
      "type": "event"
    },
    {
      "constant": true,
      "inputs": [],
      "name": "getOwner",
      "outputs": [
        {
          "internalType": "address",
          "name": "_owner",
          "type": "address"
        }
      ],
      "payable": false,
      "stateMutability": "view",
      "type": "function"
    },
    {
      "constant": false,
      "inputs": [
        {
          "internalType": "address",
          "name": "newOwner",
          "type": "address"
        }
      ],
      "name": "setOwner",
      "outputs": [
        {
          "internalType": "bool",
          "name": "success",
          "type": "bool"
        }
      ],
      "payable": false,
      "stateMutability": "nonpayable",
      "type": "function"
    }
  ],
  "bytecode": "0x608060405234801561001057600080fd5b50336000806101000a81548173ffffffffffffffffffffffffffffffffffffffff021916908373ffffffffffffffffffffffffffffffffffffffff160217905550610352806100606000396000f3fe608060405234801561001057600080fd5b50600436106100365760003560e01c806313af40351461003b578063893d20e814610097575b600080fd5b61007d6004803603602081101561005157600080fd5b81019080803573ffffffffffffffffffffffffffffffffffffffff1690602001909291905050506100e1565b604051808215151515815260200191505060405180910390f35b61009f6102f4565b604051808273ffffffffffffffffffffffffffffffffffffffff1673ffffffffffffffffffffffffffffffffffffffff16815260200191505060405180910390f35b60008060009054906101000a900473ffffffffffffffffffffffffffffffffffffffff1673ffffffffffffffffffffffffffffffffffffffff163373ffffffffffffffffffffffffffffffffffffffff16146101a5576040517f08c379a000000000000000000000000000000000000000000000000000000000815260040180806020018281038252601f8152602001807f4572726f723a206d73672e73656e646572206d757374206265206f776e65720081525060200191505060405180910390fd5b600073ffffffffffffffffffffffffffffffffffffffff168273ffffffffffffffffffffffffffffffffffffffff161415610248576040517f08c379a000000000000000000000000000000000000000000000000000000000815260040180806020018281038252601a8152602001807f4572726f723a20416464726573732063616e6e6f74206265203000000000000081525060200191505060405180910390fd5b7f04dba622d284ed0014ee4b9a6a68386be1a4c08a4913ae272de89199cc68616382604051808273ffffffffffffffffffffffffffffffffffffffff1673ffffffffffffffffffffffffffffffffffffffff16815260200191505060405180910390a1816000806101000a81548173ffffffffffffffffffffffffffffffffffffffff021916908373ffffffffffffffffffffffffffffffffffffffff16021790555060019050919050565b60008060009054906101000a900473ffffffffffffffffffffffffffffffffffffffff1690509056fea265627a7a72315820bbf37994d39eb9132b2772e2dce4baa268a99861b38fab46968a4a7f7784a7d964736f6c634300050c0032",
  "source": "pragma solidity ^0.5.0;\n\ncontract Ownable {\n\n    address private owner;\n\n    event OwnershipTransferred(address newOwner);\n\n    constructor() public\n    {\n        owner = msg.sender;\n    }\n\n    modifier onlyOwner()\n    {\n        require(msg.sender == owner, \"Error: msg.sender must be owner\");\n        _;\n    }\n\n    function getOwner()\n    public\n    view\n    returns (address _owner) {\n        return owner;\n    }\n\n    function\n    setOwner(address newOwner)\n    public\n    onlyOwner\n    returns(bool success)\n    {\n        require(newOwner != address(0x0), \"Error: Address cannot be 0\");\n        emit OwnershipTransferred(newOwner);\n        owner = newOwner;\n        return true;\n    }\n\n}",
  "sourcePath": "/home/santito/Desktop/LOAN PROJECT/contracts/Ownable.sol",
  "compiler": {
    "name": "solc",
    "version": "0.5.12+commit.7709ece9.Emscripten.clang"
  },
  "schemaVersion": "3.0.19",
  "updatedAt": "2020-01-22T15:14:43.531Z",
  "devdoc": {
    "methods": {}
  },
  "userdoc": {
    "methods": {}
  }
}